{
  "contractName": "RDChain",
  "abi": [
    {
      "constant": true,
      "inputs": [],
      "name": "helloworld",
      "outputs": [
        {
          "internalType": "string",
          "name": "",
          "type": "string"
        }
      ],
      "payable": false,
      "stateMutability": "pure",
      "type": "function"
    },
    {
      "constant": false,
      "inputs": [
        {
          "internalType": "string",
          "name": "m",
          "type": "string"
        }
      ],
      "name": "extendChain",
      "outputs": [
        {
          "internalType": "bool",
          "name": "",
          "type": "bool"
        }
      ],
      "payable": false,
      "stateMutability": "nonpayable",
      "type": "function"
    },
    {
      "constant": false,
      "inputs": [
        {
          "internalType": "address",
          "name": "blockAddr",
          "type": "address"
        },
        {
          "internalType": "string",
          "name": "m",
          "type": "string"
        }
      ],
      "name": "redactBlock",
      "outputs": [
        {
          "internalType": "bool",
          "name": "",
          "type": "bool"
        }
      ],
      "payable": false,
      "stateMutability": "nonpayable",
      "type": "function"
    },
    {
      "constant": false,
      "inputs": [
        {
          "internalType": "address",
          "name": "blockAddr",
          "type": "address"
        }
      ],
      "name": "delBlock",
      "outputs": [
        {
          "internalType": "bool",
          "name": "",
          "type": "bool"
        }
      ],
      "payable": false,
      "stateMutability": "nonpayable",
      "type": "function"
    }
  ],
  "bytecode": "0x608060405234801561001057600080fd5b5061038a806100206000396000f3fe608060405234801561001057600080fd5b506004361061004c5760003560e01c8063272e5d56146100515780632f2f485914610144578063572f7f3a146101c7578063e2febc331461029a575b600080fd5b61012a6004803603604081101561006757600080fd5b81019080803573ffffffffffffffffffffffffffffffffffffffff169060200190929190803590602001906401000000008111156100a457600080fd5b8201836020820111156100b657600080fd5b803590602001918460018302840111640100000000831117156100d857600080fd5b91908080601f016020809104026020016040519081016040528093929190818152602001838380828437600081840152601f19601f8201169050808301925050505050505091929192905050506102f6565b604051808215151515815260200191505060405180910390f35b61014c610302565b6040518080602001828103825283818151815260200191508051906020019080838360005b8381101561018c578082015181840152602081019050610171565b50505050905090810190601f1680156101b95780820380516001836020036101000a031916815260200191505b509250505060405180910390f35b610280600480360360208110156101dd57600080fd5b81019080803590602001906401000000008111156101fa57600080fd5b82018360208201111561020c57600080fd5b8035906020019184600183028401116401000000008311171561022e57600080fd5b91908080601f016020809104026020016040519081016040528093929190818152602001838380828437600081840152601f19601f82011690508083019250505050505050919291929050505061033f565b604051808215151515815260200191505060405180910390f35b6102dc600480360360208110156102b057600080fd5b81019080803573ffffffffffffffffffffffffffffffffffffffff16906020019092919050505061034a565b604051808215151515815260200191505060405180910390f35b60006001905092915050565b60606040518060400160405280600c81526020017f68656c6c6f20776f726c64210000000000000000000000000000000000000000815250905090565b600060019050919050565b60006001905091905056fea265627a7a72315820dbaf256db4fb2d4edb61b45ede69de70244b63fc96d4f6658fced67cbb4f228264736f6c63430005100032",
  "source": "// SPDX-License-Identifier: MIT\npragma solidity >=0.5.16 <0.9.0;\n\ncontract RDChain {\n\n    mapping (address => uint) private saltList;\n\n    function helloworld() public pure returns(string memory) {\n        return \"hello world!\";\n    }\n\n    function extendChain(string memory m) public returns (bool) {\n        return true;\n    }\n\n    function redactBlock(address blockAddr, string memory m) public returns (bool) {\n        return true;\n    }\n\n    function delBlock(address blockAddr) public returns (bool) {\n        return true;\n    }\n\n//   function insertBlock(uint blockNo, string memory m) public returns (bool) {\n//     return true;\n//   }\n\n}\n",
  "sourcePath": "/home/luczydoge/RedactableBlockchain/contracts/RDChain.sol",
  "compiler": {
    "name": "solc",
    "version": "0.5.16+commit.9c3226ce.Emscripten.clang"
  },
  "schemaVersion": "3.3.4",
  "updatedAt": "2021-04-05T10:50:32.678Z",
  "devdoc": {
    "methods": {}
  },
  "userdoc": {
    "methods": {}
  }
}