{
  "contractName": "RDChain",
  "abi": [
    {
      "inputs": [],
      "payable": false,
      "stateMutability": "nonpayable",
      "type": "constructor"
    },
    {
      "anonymous": false,
      "inputs": [
        {
          "indexed": false,
          "internalType": "uint256",
          "name": "blockNo",
          "type": "uint256"
        }
      ],
      "name": "entendResult",
      "type": "event"
    },
    {
      "constant": true,
      "inputs": [],
      "name": "helloworld",
      "outputs": [
        {
          "internalType": "string",
          "name": "",
          "type": "string"
        }
      ],
      "payable": false,
      "stateMutability": "pure",
      "type": "function"
    },
    {
      "constant": true,
      "inputs": [
        {
          "internalType": "uint256",
          "name": "blockNo",
          "type": "uint256"
        }
      ],
      "name": "getBlock",
      "outputs": [
        {
          "internalType": "uint256",
          "name": "ch",
          "type": "uint256"
        },
        {
          "internalType": "uint256",
          "name": "r",
          "type": "uint256"
        }
      ],
      "payable": false,
      "stateMutability": "view",
      "type": "function"
    },
    {
      "constant": true,
      "inputs": [],
      "name": "getMaxNo",
      "outputs": [
        {
          "internalType": "uint256",
          "name": "",
          "type": "uint256"
        }
      ],
      "payable": false,
      "stateMutability": "view",
      "type": "function"
    },
    {
      "constant": false,
      "inputs": [
        {
          "internalType": "uint256",
          "name": "ch",
          "type": "uint256"
        },
        {
          "internalType": "uint256",
          "name": "r",
          "type": "uint256"
        }
      ],
      "name": "extendChain",
      "outputs": [],
      "payable": false,
      "stateMutability": "nonpayable",
      "type": "function"
    },
    {
      "constant": false,
      "inputs": [
        {
          "internalType": "uint256",
          "name": "blockNo",
          "type": "uint256"
        },
        {
          "internalType": "uint256",
          "name": "ch",
          "type": "uint256"
        },
        {
          "internalType": "uint256",
          "name": "r",
          "type": "uint256"
        }
      ],
      "name": "redactBlock",
      "outputs": [],
      "payable": false,
      "stateMutability": "nonpayable",
      "type": "function"
    }
  ],
  "bytecode": "0x608060405234801561001057600080fd5b50600080819055506000600160008081526020019081526020016000208190555060006002600080815260200190815260200160002081905550610324806100596000396000f3fe608060405234801561001057600080fd5b50600436106100575760003560e01c806304c075691461005c5780630ebefacd146100a55780632f2f4859146100c3578063619c578b1461014657806378c10c6e1461017e575b600080fd5b6100886004803603602081101561007257600080fd5b81019080803590602001909291905050506101c0565b604051808381526020018281526020019250505060405180910390f35b6100ad6101f4565b6040518082815260200191505060405180910390f35b6100cb6101fd565b6040518080602001828103825283818151815260200191508051906020019080838360005b8381101561010b5780820151818401526020810190506100f0565b50505050905090810190601f1680156101385780820380516001836020036101000a031916815260200191505b509250505060405180910390f35b61017c6004803603604081101561015c57600080fd5b81019080803590602001909291908035906020019092919050505061023a565b005b6101be6004803603606081101561019457600080fd5b810190808035906020019092919080359060200190929190803590602001909291905050506102ba565b005b6000806001600084815260200190815260200160002054600260008581526020019081526020016000205491509150915091565b60008054905090565b60606040518060400160405280600c81526020017f68656c6c6f20776f726c64210000000000000000000000000000000000000000815250905090565b600080815480929190600101919050555081600160008054815260200190815260200160002081905550806002600080548152602001908152602001600020819055507feafe4e6bd0331695c2f3fe48d0ca5f601e6cbe1fc51d2b8b73e70e33b43b33976000546040518082815260200191505060405180910390a15050565b81600160008581526020019081526020016000208190555080600260008581526020019081526020016000208190555050505056fea265627a7a7231582088c2527a26ab169ac221be676d2301d358d0a36923d30dc746c4860209e87aaa64736f6c63430005100032",
  "source": "// SPDX-License-Identifier: MIT\n\npragma solidity >=0.5.16;\n\ncontract RDChain {\n\n    uint private maxNo;\n    mapping (uint => uint256) private hashList;\n    mapping (uint => uint256) private rList;\n\n    event entendResult(uint blockNo);\n\n    function helloworld() public pure returns(string memory) {\n        return \"hello world!\";\n    }\n\n    constructor() public {\n        maxNo = 0;\n        hashList[0] = 0x0;\n        rList[0] = 0x0;\n    }\n\n    function getBlock(uint blockNo) public view returns (uint ch, uint r) {\n        return (hashList[blockNo], rList[blockNo]);\n    }\n\n    function getMaxNo() public view returns (uint) {\n        return maxNo;\n    }\n\n    function extendChain(uint256 ch, uint256 r) public {\n        maxNo++;\n        hashList[maxNo] = ch;\n        rList[maxNo] = r;\n        emit entendResult(maxNo);\n    }\n\n    function redactBlock(uint blockNo, uint256 ch, uint256 r) public {\n        hashList[blockNo] = ch;\n        rList[blockNo] = r;\n    }\n\n    // function delBlock(uint blockNo) public returns (bool) {\n    //     return redactBlock(blockNo, 0x0, 0x0);\n    // }\n\n    // function insertBlock(uint blockNo, string memory m) public returns (bool) {\n    // return true;\n    // }\n\n}\n",
  "sourcePath": "/home/luczydoge/RedactableBlockchain/contracts/RDChain.sol",
  "compiler": {
    "name": "solc",
    "version": "0.5.16+commit.9c3226ce.Emscripten.clang"
  },
  "schemaVersion": "3.3.4",
  "updatedAt": "2021-04-07T08:25:31.354Z",
  "devdoc": {
    "methods": {}
  },
  "userdoc": {
    "methods": {}
  }
}