{
  "contractName": "RDChain",
  "abi": [
    {
      "inputs": [],
      "payable": false,
      "stateMutability": "nonpayable",
      "type": "constructor"
    },
    {
      "constant": true,
      "inputs": [],
      "name": "helloworld",
      "outputs": [
        {
          "internalType": "string",
          "name": "",
          "type": "string"
        }
      ],
      "payable": false,
      "stateMutability": "pure",
      "type": "function"
    },
    {
      "constant": true,
      "inputs": [
        {
          "internalType": "uint256",
          "name": "blockNo",
          "type": "uint256"
        }
      ],
      "name": "getBlock",
      "outputs": [
        {
          "internalType": "uint256",
          "name": "ch",
          "type": "uint256"
        },
        {
          "internalType": "uint256",
          "name": "r",
          "type": "uint256"
        }
      ],
      "payable": false,
      "stateMutability": "view",
      "type": "function"
    },
    {
      "constant": false,
      "inputs": [
        {
          "internalType": "uint256",
          "name": "ch",
          "type": "uint256"
        },
        {
          "internalType": "uint256",
          "name": "r",
          "type": "uint256"
        }
      ],
      "name": "extendChain",
      "outputs": [
        {
          "internalType": "uint256",
          "name": "",
          "type": "uint256"
        }
      ],
      "payable": false,
      "stateMutability": "nonpayable",
      "type": "function"
    },
    {
      "constant": false,
      "inputs": [
        {
          "internalType": "uint256",
          "name": "blockNo",
          "type": "uint256"
        },
        {
          "internalType": "uint256",
          "name": "ch",
          "type": "uint256"
        },
        {
          "internalType": "uint256",
          "name": "r",
          "type": "uint256"
        }
      ],
      "name": "redactBlock",
      "outputs": [],
      "payable": false,
      "stateMutability": "nonpayable",
      "type": "function"
    }
  ],
  "bytecode": "0x608060405234801561001057600080fd5b506000808190555060006001600080815260200190815260200160002081905550600060026000808152602001908152602001600020819055506102d6806100596000396000f3fe608060405234801561001057600080fd5b506004361061004c5760003560e01c806304c07569146100515780632f2f48591461009a578063619c578b1461011d57806378c10c6e14610169575b600080fd5b61007d6004803603602081101561006757600080fd5b81019080803590602001909291905050506101ab565b604051808381526020018281526020019250505060405180910390f35b6100a26101df565b6040518080602001828103825283818151815260200191508051906020019080838360005b838110156100e25780820151818401526020810190506100c7565b50505050905090810190601f16801561010f5780820380516001836020036101000a031916815260200191505b509250505060405180910390f35b6101536004803603604081101561013357600080fd5b81019080803590602001909291908035906020019092919050505061021c565b6040518082815260200191505060405180910390f35b6101a96004803603606081101561017f57600080fd5b8101908080359060200190929190803590602001909291908035906020019092919050505061026c565b005b6000806001600084815260200190815260200160002054600260008581526020019081526020016000205491509150915091565b60606040518060400160405280600c81526020017f68656c6c6f20776f726c64210000000000000000000000000000000000000000815250905090565b600080600081548092919060010191905055508260016000805481526020019081526020016000208190555081600260008054815260200190815260200160002081905550600054905092915050565b81600160008581526020019081526020016000208190555080600260008581526020019081526020016000208190555050505056fea265627a7a72315820e6e67e8a7ace3dae3b53a88df114156c13a0fae734a55f77774f5b11495f02d764736f6c63430005100032",
  "source": "// SPDX-License-Identifier: MIT\n\npragma solidity >=0.5.16;\n\ncontract RDChain {\n\n    uint private maxNo;\n    mapping (uint => uint256) private hashList;\n    mapping (uint => uint256) private rList;\n\n    function helloworld() public pure returns(string memory) {\n        return \"hello world!\";\n    }\n\n    constructor() public {\n        maxNo = 0;\n        hashList[0] = 0x0;\n        rList[0] = 0x0;\n    }\n\n    function getBlock(uint blockNo) public view returns (uint ch, uint r) {\n        return (hashList[blockNo], rList[blockNo]);\n    }\n\n    function extendChain(uint256 ch, uint256 r) public returns (uint) {\n        maxNo++;\n        hashList[maxNo] = ch;\n        rList[maxNo] = r;\n        return maxNo;\n    }\n\n    function redactBlock(uint blockNo, uint256 ch, uint256 r) public {\n        hashList[blockNo] = ch;\n        rList[blockNo] = r;\n    }\n\n    // function delBlock(uint blockNo) public returns (bool) {\n    //     return redactBlock(blockNo, 0x0, 0x0);\n    // }\n\n    // function insertBlock(uint blockNo, string memory m) public returns (bool) {\n    // return true;\n    // }\n\n}\n",
  "sourcePath": "/home/luczydoge/RedactableBlockchain/contracts/RDChain.sol",
  "compiler": {
    "name": "solc",
    "version": "0.5.16+commit.9c3226ce.Emscripten.clang"
  },
  "schemaVersion": "3.3.4",
  "updatedAt": "2021-04-07T05:18:11.017Z",
  "devdoc": {
    "methods": {}
  },
  "userdoc": {
    "methods": {}
  }
}